:020000040000FA
:060000008A110A12042817
:0800080083160313FF3085008D
:100010008801831603170317013088000030890018
:100020008316031300309F008312031340309F0098
:10003000831203138030A200A301A40122088800C8
:10004000000000000000000000009F149F182628F8
:100050001E08A100A00F2A28A10F2A280D30A100F8
:10006000A00B3028A10B302824183C2806183E2865
:100070002414FF30A3063E28061824100310231C66
:100080004528A20C0318A2171E28A20D031822143B
:020090001E2828
:02400E00E420AC
:02401000FF3E71
:00000001FF
